S02B00002F2F535256422F486F6D6573242F776F6E67726F73342F4465736B746F702F6465736C2F6C61623604
S113002004FCFFDE150080DA150100DE7A303100B1
S1130030150200DE150340DF3A3131004C0000C6E2
S1130040263400C034C83F06040008C634C8FF0282
S11300500400C45A350000C0C406C0013500C059AC
S1130060C416C0013500C059840CC0013500C05904
S1130070C412C0013500C05926120008CC0380A563
S11300800C3CC0A53AD12EB844020003160300BBB1
S11300904410C0BD84FDFFBD06010000040CC0BDBA
S11300A03500C05D44020003160300B3441080B55C
S11300B084FDBFB506010000040C80B53500805DE9
S11300C006230000CC0380AD0C3CC0AD3AD12EB861
S11300D044020003160300BB4410C0BD84FDFFBDF1
S11300E006010000040CC0BD3500C05D44020003DD
S11300F0160300B3441080B584FDBFB506010000AB
S1130100040C80B53500805D440000063A7001C0DF
S1130110060F000034C8FF010400C43937008038DA
S11301200C00E010260A0018CC1F8010841C00016B
S113013026030011C41C000126030011060400005C
S113014044004000060200000400400006000000D5
S11301503A700100170080DA170200DE7A7001C0DD
S1130160170100DE170340DF0404C0DE04FF7FEF45
S10701703A0880EFD6
S1130200340004020408044234C8FF030400C47B1D
S11302103400C10604FFFFDE4400400044404002B5
S1130220FA700148440040023A700148403F00001F
S1130230C041000080320000C40780032608804BC0
S1130240840780032610804B040780032618804B04
S1130250C40380032620804BC40180032628804BDE
S11302600400800180380000040CC0030E03C05356
S1130270C41F40014036000006EE3F0044E07F0109
S11302804036000006EB3F0004188001803800006F
S11302900409C0031603807AC41F400140360000DD
S11302A006E43F0004F77F014036000006E13F000A
S11302B0C41F8001803800000406C0031603807A3E
S11302C0040C40014036000006DA3F0004E87F01D8
S11302D04036000006D73F0004E8BF018038000024
S11302E00409C0031603807AC41F4001403600008D
S11302F006D03F0004F77F014036000006CD3F00E2
S113030044E0BF01803800000406C0031603807A6D
S1130310040C40014036000006C63F0004E87F019B
S11303204036000006C33F0004FFFFDE1500C0DFB7
S113033084000001003D0000C03A00001EFE3F1092
S1130340C03A00003A8813103A882910C03A0000D5
S11303503A8815103A882B101700C0DF0401C0DE5C
S11303603A2800F804FFFFDE1500C0DF0401000195
S1130370003D00003A880928003D00001700C0DF56
S11303800401C0DE3A2800F804FFFFDE1500C0DFD8
S113039044010001003D00003A880930003D00009E
S11303A01700C0DF0401C0DE3A2800F804FFFFDEB6
S11303B01500C0DF3700C0410C00E03826FD3F18AF
S11303C0CC3F80381700C0DF0401C0DE3A2800F8B3
S11303D004FFFFDE1500C0DF3701C0403AD4061821
S11303E026FD3F18350000411700C0DF0401C0DEC0
S11303F03A2800F834C8FF010400C839547D81024A
S11304001440F8023502C03A3503803A350000380A
S1130410D40100043501003C3A2800F834C87F04B4
S11304200400448C440000043501008C3A2800F890
S9030200FA
